:020000040800F2
:100000000000022099190008E9190008E919000800
:10001000E9190008E9190008E919000800000000C2
:10002000000000000000000000000000E9190008C6
:10003000E919000800000000E91900084D16000841
:10004000E9190008E9190008E9190008E919000888
:10005000E9190008E9190008E9190008E919000878
:10006000E9190008E9190008E9190008E919000868
:10007000E9190008E9190008E9190008E919000858
:10008000E9190008E9190008E91900080000000052
:10009000000000000000000000000000E919000856
:1000A000E9190008E9190008E9190008E919000828
:1000B000E9190008E9190008E9190008E919000818
:1000C000E9190008E9190008E9190008E919000808
:1000D000E9190008E9190008651600080000000089
:1000E00059160008E9190008E91900080000000085
:1000F000000000000000000000000000E9190008F6
:1001000000000000E9190008E9190008E9190008D1
:1001100000000000000000000000000000000000DF
:10012000E9190008E9190008E9190008E9190008A7
:10013000E9190008000000000000000000000000B5
:10014000000000000000000000000000E9190008A5
:10015000E9190008E9190008E9190008E919000877
:10016000E9190008E919000800000000000000007B
:10017000000000000000000000000000000000007F
:1001800000000000E9190008000000000000000065
:08019000E9190008E919000853
:1001A00010B5054C237833B9044B13B10448AFF3B1
:1001B00000800123237010BD7000002000000000AB
:1001C0005C22000808B5034B1BB103490348AFF399
:1001D000008008BD00000000740000205C220008C0
:1001E000034613F8012B002AFBD1181A0138704777
:1001F00001F0FF01102A2BDB10F0070F08D010F8D8
:10020000013B013A8B422DD010F0070F42B3F6D1DB
:10021000F0B441EA012141EA014122F007047FF0F4
:1002200000070023F0E80256083C85EA010586EA4B
:10023000010685FA47F5A3FA87F586FA47F6A5FA87
:1002400087F68EB9EED1F0BC01F0FF0102F0070293
:1002500032B110F8013B013A83EA010313B1F8D13E
:100260000020704701387047002D06BF354603381F
:10027000073815F0010F07D1013015F4807F02BF58
:10028000013015F4C03F0130F0BC0138704700BFA9
:1002900010B504460E4B18784FF47A73B3FBF0F3A5
:1002A0000C4A1068B0FBF3F000F094F868B90F2C1A
:1002B00001D901200AE0002221464FF0FF3000F072
:1002C00049F8034B5C60002000E0012010BD00BF36
:1002D000000000200800002008B50B4B1A6842F40B
:1002E00000721A601A6842F480621A601A6842F456
:1002F00080721A60032000F01BF80020FFF7C8FF8F
:1003000001F0A8FA002008BD003C0240034A116831
:10031000034B1B780B441360704700BF980000200C
:1003200000000020014B1868704700BF98000020B3
:10033000074AD36823F4E0631B041B0C000200F49B
:10034000E060184340F0BF6040F40030D060704778
:1003500000ED00E030B4174BDB68C3F30223C3F1B8
:100360000704042C28BF04241D1D062D18D9033BA7
:100370004FF0FF3505FA04F421EA0401994005FA2B
:1003800003F322EA0303194300280BDB0901C9B276
:1003900000F1604000F5614080F8001330BC704708
:1003A0000023E5E700F00F000901C9B2024B195420
:1003B000F4E700BF00ED00E014ED00E000F01F02E4
:1003C000400901239340024A42F82030704700BFA1
:1003D00000E100E00138B0F1807F0AD2064B58609E
:1003E000064AF02182F823100020986007221A6044
:1003F00070470120704700BF10E000E000ED00E012
:10040000704708B5FFF7FCFF08BD90F83530DBB248
:10041000022B03D08023436501207047052380F819
:1004200035300268136823F0010313600020704721
:1004300000230F2B00F2C580F0B482B039E0042213
:1004400000E00022B2403A4302345E4E46F82420D7
:100450005D4A1468EA4302EA04064F6817F4803FD5
:1004600001D045EA0406584C2660646802EA040696
:100470004F6817F4003F01D045EA0406524C66600D
:10048000A46802EA04064F6817F4801F01D045EA09
:1004900004064D4CA660E46822404E6816F4001F26
:1004A00001D045EA0402484CE26001330F2B00F210
:1004B000858001229A400C6804EA0205AA42F4D120
:1004C0004C68022C01D0122C10D1DE08083650F8EE
:1004D00026C003F00704A7000F24BC402CEA040C3C
:1004E0000C69BC4044EA0C0440F8264004685F00F4
:1004F0000326BE40F64306EA040C4C6804F00304ED
:10050000BC4044EA0C0404604C6804F1FF3CBCF1BC
:10051000010F03D9112C01D0122C10D1846806EAE6
:10052000040CCC68BC4044EA0C048460446824EAAF
:1005300002024C68C4F300149C4014434460C26837
:1005400016408A68BA403243C2604A6812F0805F3F
:10055000ABD0002201921D4A546C44F48044546490
:10056000526C02F480420192019A9C08A61C154A22
:1005700052F8267003F0030296000F22B24027EAD9
:100580000207134A90423FF45CAF02F5806290424A
:100590000ED002F5806290420CD002F5806290424B
:1005A0000AD002F5806290423FF449AF072249E742
:1005B000012247E7022245E7032243E702B0F0BCED
:1005C0007047704700380140003C0140003802404D
:1005D0000000024008B5054B5B69034200D108BD2D
:1005E000024B586101F0C8F8F9E700BF003C014038
:1005F000002800F0BB8170B582B00446036813F098
:10060000010F3BD0A74B9B6803F00C03042B2CD0AD
:10061000A44B9B6803F00C03082B21D06368B3F54F
:10062000803F4FD0B3F5A02F52D09E4B1A6822F4D2
:1006300080321A601A6822F480221A606368002BE4
:1006400050D0FFF76FFE0546964B1B6813F4003F32
:1006500014D1FFF767FE401B6428F5D903208AE117
:10066000904B5B6813F4800FD8D08E4B1B6813F44B
:10067000003F03D06368002B00F07A81236813F0F9
:10068000020F55D0874B9B6813F00C0F3ED0854B63
:100690009B6803F00C03082B33D0E368002B68D071
:1006A000814B01221A60FFF73DFE05467D4B1B681A
:1006B00013F0020F54D1FFF735FE401B0228F5D985
:1006C000032058E1774A136843F480331360B5E799
:1006D000744B1A6842F480221A601A6842F480321D
:1006E0001A60ABE7FFF71EFE05466E4B1B6813F45E
:1006F000003FC3D0FFF716FE401B6428F5D9032046
:1007000039E1684B5B6813F4800FC6D1654B1B68F9
:1007100013F0020F04D0E368012B01D001202AE17D
:10072000604A136823F0F803216943EAC1031360A8
:10073000236813F0080F40D0636963B35B4B012259
:100740001A60FFF7EFFD0546564B5B6F13F0020F83
:1007500033D1FFF7E7FD401B0228F5D903200AE15A
:10076000504A136823F0F803216943EAC103136078
:10077000DEE74D4B00221A60FFF7D4FD0546494BDA
:100780001B6813F0020FD3D0FFF7CCFD401B0228EB
:10079000F5D90320EFE0454B00221A60FFF7C2FDB8
:1007A0000546404B5B6F13F0020F06D0FFF7BAFD12
:1007B000401B0228F5D90320DDE0236813F0040F65
:1007C00079D0384B1B6C13F0805F33D10023019339
:1007D000344B1A6C42F080521A641B6C03F0805345
:1007E0000193019B0125324B1B6813F4807F23D0BA
:1007F000A368012B34D0052B38D02A4B1A6F22F076
:1008000001021A671A6F22F004021A67A368002B0C
:1008100036D0FFF787FD0646224B1B6F13F0020F01
:1008200048D1FFF77FFD801B41F288339842F3D90E
:100830000320A0E00025D6E71D4A136843F4807327
:100840001360FFF76FFD0646194B1B6813F4807F9A
:10085000CED1FFF767FD801B0228F5D903208AE07F
:10086000104A136F43F001031367CFE70D4B1A6F64
:1008700042F004021A671A6F42F001021A67C5E7D4
:10088000FFF750FD0646074B1B6F13F0020F11D008
:10089000FFF748FD801B41F288339842F3D90320CB
:1008A00069E000BF0038024000004742800E474226
:1008B00000700040E5B9A369002B5BD0304A926814
:1008C00002F00C02082A58D0022B17D02D4B002220
:1008D0001A60FFF727FD0446294B1B6813F0007FC1
:1008E00042D0FFF71FFD001B0228F5D9032042E08C
:1008F000234A136C23F080531364DCE7214B00225E
:100900001A60FFF70FFD05461D4B1B6813F0007FB3
:1009100006D0FFF707FD401B0228F5D903202AE087
:10092000E369226A1343626A43EA8213A26A5208A5
:10093000013A43EA0243E26A43EA0263104A53601F
:10094000104B01221A60FFF7EDFC04460C4B1B68AC
:1009500013F0007F06D1FFF7E5FC001B0228F5D954
:10096000032008E0002006E0002004E0012070479A
:10097000012000E0002002B070BD0120FBE700BFB5
:100980000038024060004742014B1868704700BFC2
:100990000800002008B5FFF7F7FF044B9B68C3F37E
:1009A0008223034AD35CD84008BD00BF0038024010
:1009B000A022000808B5FFF7E7FF044B9B68C3F3CC
:1009C0004233034AD35CD84008BD00BF0038024020
:1009D000A022000830B583B00446036813F0050F69
:1009E0000ED1236813F0020F38D1236813F0080FDB
:1009F00000F09B80227D4E4B1A60002003B030BD7A
:100A00004C4B00221A60FFF78DFC05464A4B1B68D1
:100A100013F0006F06D0FFF785FC401B0228F5D9C4
:100A20000320EBE76368A26843EA8213E26843EAC3
:100A30000273414AC2F884303E4B01221A60FFF72C
:100A400071FC05463C4B1B6813F0006FC9D1FFF7E2
:100A500069FC401B0228F5D90320CFE7002301934E
:100A6000354B1A6C42F080521A641B6C03F08053B1
:100A70000193019B314A136843F480731360FFF7BD
:100A800051FC05462D4B1B6813F4807F06D1FFF700
:100A900049FC401B0228F5D90320AFE7264B1B6F0A
:100AA00013F4407312D0226902F440729A420DD0BE
:100AB000214B1A6F22F44072214901200860002066
:100AC00008601A671B6F13F0010F12D1236903F43A
:100AD0004072B2F5407F1DD0174A936823F4F81393
:100AE000936015490B6F2269C2F30B0213430B6726
:100AF0007BE7FFF717FC05460F4B1B6F13F0020F48
:100B0000E4D1FFF70FFC401B41F288339842F3D940
:100B1000032073E708498A6822F4F81223F070432F
:100B200023F4407313438B60DBE7002066E700BFCC
:100B3000E011474268004742003802400070004020
:100B4000400E474238B504460268D36823F0A0033C
:100B5000D360FFF7E7FB05462368DB6813F0200F3F
:100B600007D1FFF7DFFB401BB0F57A7FF4D90320F4
:100B700000E0002038BD38B50368DA6812F0400F95
:100B800001D0002038BD04464FF0FF32DA60FFF795
:100B9000C9FB05462368DB6813F0400F07D1FFF758
:100BA000C1FB401BB0F57A7FF4D90320EAE70020AF
:100BB000E8E738B500285CD00446437F002B40D0DE
:100BC000022363772368CA225A62236853225A6237
:100BD0002046FFF7D0FF0546002836D122689368EB
:100BE00023F4E00323F04003936021688A6863687C
:100BF000206903436069034313438B602368E26801
:100C00001A6122681369A16843EA014313612268EB
:100C1000D36823F08003D36023689B6813F0200F10
:100C20001BD02268136C23F4802313642268136C96
:100C3000A1690B4313642368FF225A62012363777F
:100C400009E0037700F024FEBAE72368FF225A6226
:100C5000042363770125284638BD2046FFF772FF3D
:100C60000028DED02368FF225A620423637701251F
:100C7000F1E70125EFE7002302E001330A38C0B2B3
:100C80000928FAD81B01DBB21843704770B5037FFF
:100C9000012B66D001230377022343773AB94B78BF
:100CA00013F0100F03D003F0EF030A334B700E461E
:100CB0000446002A32D1C878FFF7DDFF05047078BA
:100CC000FFF7D9FF45EA0025B078FFF7D4FF2843A6
:100CD000357840EA45352368CA225A622368532290
:100CE0005A622046FFF747FF064610BB236825F0EF
:100CF0007F4525F0C0055D602268D36823F080033E
:100D0000D36023689B6813F0200F1CD02368FF2258
:100D10005A62012363770023237712E0CD78487865
:100D2000000240EA05408D7828430D7840EA4535B9
:100D3000D1E72368FF225A620423637700232377D5
:100D40000126304670BD2046FFF7FCFE0028DDD0AE
:100D50002368FF225A620423637700232377012646
:100D6000EFE70226EDE7F8B5037F012B78D00D46BB
:100D700004460123037702234377002A46D1036800
:100D80009B6813F0400F01D10023CB702878FFF748
:100D900072FF06046878FFF76EFF46EA0026A8781F
:100DA000FFF769FF3043EE7840EA06462368CA221F
:100DB0005A62236853225A622046FFF7DCFE074638
:100DC000002835D1236806F07F3626F0FE461E60E7
:100DD0002268936823F48023936021688B68EA6813
:100DE0002869024313438B602268D36823F0800391
:100DF000D36023689B6813F0200F23D02368FF2261
:100E00005A62012363770023237719E003689B6804
:100E100013F0400F01D10023CB702B7868780002CB
:100E200040EA0340AB781843EE7840EA0646BDE757
:100E30002368FF225A620423637700232377012764
:100E40003846F8BD2046FFF77DFE0028D6D023683F
:100E5000FF225A6204236377002323770127EFE7F9
:100E60000227EDE7030903EB83035A0000F00F00AC
:100E70001044C0B2704770B503689B6A4B6003684A
:100E80001B69C3F30E038B6003681B6803F07F3399
:100E900023F0FE431D0C05F03F000870C3F3062647
:100EA0004E7003F07F048C7005F04005CD705AB988
:100EB0000D46FFF7D7FF28703046FFF7D3FF687065
:100EC0002046FFF7CFFFA870002070BD70B5036803
:100ED0005B6823F07F4323F0C003180CC870C3F392
:100EE00004264E7003F03F058D70C3F342330B7040
:100EF0005AB90C46FFF7B6FFE0703046FFF7B2FF75
:100F000060702846FFF7AEFFA070002070BD026839
:100F1000D36823F49073D3600268536923F001030C
:100F20005361202380F83A30704790F83930DBB2B3
:100F3000212B2AD18368B3F5805F16D0036A5A1C2F
:100F400002621A7803685A60C38C013B9BB2C38467
:100F5000EBB90268D36823F08003D3600268D368DA
:100F600043F04003D36000207047036A1B88026887
:100F7000C3F30803536003691BB9036A02330362B6
:100F8000E2E7036A01330362DEE7022070470020D4
:100F9000704700002DE9F843044601680A6922F40D
:100FA0004052C36813430B610168CA6822F41642B9
:100FB00022F00C0283680069034360690343E0691F
:100FC00003431343CB6021684A6922F44072A3694A
:100FD00013434B61E369B3F5004F60D02368B84A0F
:100FE000934200F0148102F58062934200F00F8179
:100FF000FFF7D0FC00EB800000EB80006568AD00DF
:10100000B0FBF5F5AF4FA7FB05356D092E01FFF7D6
:10101000C1FC00EB800000EB80006568AD00B0FB18
:10102000F5F9FFF7B7FC00EB800000EB8000656886
:10103000AD00B0FBF5F5A7FB05356D094FF0640871
:1010400008FB15952D013235A7FB05356D0905F017
:10105000F0053544FFF79EFC00EB800000EB8000BC
:101060006668B600B0FBF6F6FFF794FC00EB800074
:1010700000EB800063689B00B0FBF3F0A7FB00303F
:10108000400908FB10684FEA081808F13208A7FB6E
:101090000837C7F3431723682F449F600DE1236887
:1010A000874A93425BD002F58062934257D0FFF7A4
:1010B00071FC00EB800000EB800065686D00B0FB08
:1010C000F5F5804FA7FB05356D092E01FFF762FC92
:1010D00000EB800000EB800065686D00B0FBF5F967
:1010E000FFF758FC00EB800000EB800065686D00A6
:1010F000B0FBF5F5A7FB05356D094FF0640808FB5B
:101100001595ED003235A7FB05356D096D0005F429
:10111000F8753544FFF73EFC00EB800000EB8000E3
:1011200066687600B0FBF6F6FFF734FC00EB800053
:1011300000EB800063685B00B0FBF3F3A7FB0323C5
:101140005B0908FB13684FEAC80808F13208A7FBDF
:101150000837C7F3421723682F449F60ADE0FFF7BD
:1011600029FC00EB800000EB800065686D00B0FB9F
:10117000F5F5544FA7FB05356D092E01FFF71AFC55
:1011800000EB800000EB800065686D00B0FBF5F9B6
:10119000FFF710FC00EB800000EB800065686D003D
:1011A000B0FBF5F5A7FB05356D094FF0640808FBAA
:1011B0001595ED003235A7FB05356D096D0005F479
:1011C000F8753544FFF7F6FB00EB800000EB80007C
:1011D00066687600B0FBF6F6FFF7ECFB00EB8000EC
:1011E00000EB800063685B00B0FBF3F3A7FB032315
:1011F0005B0908FB13684FEAC80808F13208A7FB2F
:101200000837C7F3421723682F449F6055E0FFF764
:10121000D1FB00EB800000EB80006568AD00B0FB07
:10122000F5F5284FA7FB05356D092E01FFF7C2FB29
:1012300000EB800000EB80006568AD00B0FBF5F9C5
:10124000FFF7B8FB00EB800000EB80006568AD00A5
:10125000B0FBF5F5A7FB05356D094FF0640808FBF9
:1012600015952D013235A7FB05356D0905F0F00503
:101270003544FFF79FFB00EB800000EB80006668C1
:10128000B600B0FBF6F6FFF795FB00EB800000EB35
:10129000800063689B00B0FBF3F0A7FB00304009BF
:1012A00008FB10684FEA081808F13208A7FB083756
:1012B000C7F3431723682F449F60BDE8F88300BF3E
:1012C000001001401F85EB512DE9F04105460F4606
:1012D00016469846069C2B681B6837EA03030CBF2A
:1012E00001230023B3421DD1B4F1FF3FF3D02CB151
:1012F000FFF718F8A0EB0800A042ECD92A68D368E1
:1013000023F4D073D3602A68536923F00103536137
:10131000202385F8393085F83A30002385F83830B5
:10132000032000E00020BDE8F08158B310B504466A
:1013300090F839300BB3242384F839302268D3680D
:1013400023F40053D3602046FFF724FE226813697C
:1013500023F4904313612268536923F02A035361F5
:101360002268D36843F40053D3600020E063202355
:1013700084F8393084F83A3010BD80F8383000F005
:10138000ABFAD8E7012070472DE9F04182B01E4644
:1013900090F83930DBB2202B55D104460D469046EB
:1013A000002955D0002A55D090F83830012B53D061
:1013B000012380F838300023C363212380F83930BB
:1013C000FEF7B0FF0746A4F82480A4F8268010E0BA
:1013D00000963B46002280212046FFF775FF00283B
:1013E0003CD12B882268C3F3080353602369C3B937
:1013F0000235E38C9BB2B3B1E38C013B9BB2E38437
:10140000A368B3F5805FE3D000963B4600228021BD
:101410002046FFF759FF18BB2A7823685A60013528
:10142000E7E70135E5E700963B46002240212046EC
:10143000FFF74AFF0346A8B9202284F8392000228A
:1014400084F8382000E00223184602B0BDE8F0819D
:101450000123F9E70123F7E70223F5E70323F3E785
:101460000323F1E70323EFE7704708B50168CB6872
:1014700023F04003CB60202380F83930FFF7F4FFDE
:10148000002008BD704708B590F83A30DBB2222B37
:1014900040D18368B3F5805F0ED0036903BB036856
:1014A0005A68836A591C81621A70C38D013B9BB2D2
:1014B000C385F3B100202EE0826A036943B9036853
:1014C0005B68C3F308031380836A02338362ECE72B
:1014D00003685B68DBB21380836A01338362E4E7ED
:1014E00003685B68826A511C816203F07F0313709A
:1014F000DBE70268D36823F49073D3600268536912
:1015000023F001035361202380F83A30FFF7BAFF3C
:10151000002000E0022008BD7047000010B504461E
:1015200002681368D168526913F00F0005D113F0F7
:10153000200F02D011F0200F53D1002867D012F0F5
:10154000010202D111F4907F61D013F0010F06D097
:1015500011F4807F03D0E06B40F00100E06313F0F2
:10156000040F04D01AB1E06B40F00200E06313F006
:10157000020F04D01AB1E06B40F00400E06313F0F6
:10158000080F04D01AB1E26B42F00802E263E26B8A
:10159000002A48D013F0200F02D011F0200F24D1E0
:1015A00023685B6903F04003E26B12F0080F00D17F
:1015B0003BB32046FFF7ABFC23685A6912F0400F9B
:1015C0001BD05A6922F040025A61636B8BB11A4AF0
:1015D0001A65606BFEF719FF28B3606B036D9847BF
:1015E00021E02046FFF74FFF1DE02046FFF74BFFAD
:1015F000D6E72046FFF790FF15E02046FFF78CFF67
:1016000011E02046FFF788FF0023E3630BE013F0AF
:10161000800F02D011F0800F06D113F0400F02D0DE
:1016200011F0400F04D110BD2046FFF77EFCFAE711
:101630002046FFF71AFFF6E73D16000808B5806B55
:101640000023C385C384FFF767FF08BD08B5FEF715
:101650005DFEFEF7D6FE08BD08B54FF40050FEF75C
:10166000B9FF08BD08B50248FFF758FF08BD00BF25
:10167000BC0000200FB400B597B018AA52F8041BA4
:10168000019202A800F0ECF902A8FEF7A9FD4FF0C4
:10169000FF3382B202A90448FFF776FE17B05DF867
:1016A00004EB04B0704700BFBC00002010B586B04A
:1016B0000C238DF804300B238DF805300A238DF8A8
:1016C000063040238DF807300B4C002201A920463C
:1016D000FFF749FB16238DF8023001238DF8013006
:1016E00015228DF8032006A901F8183D0022204696
:1016F000FFF7CCFA06B010BD9C00002010B586B0F4
:10170000002400940E4B1A6B42F004021A631B6B08
:1017100003F004030093009B4FF400530193094B23
:101720000293039401A90848FEF782FE22460F2186
:101730002820FEF70FFE2820FEF740FE06B010BD61
:1017400000380240000021100008024070B489B047
:10175000064601AC074D0FCD0FC495E8070084E89D
:101760000700013E08AB03EB860656F81C0C09B0D7
:1017700070BC70477422000870B588B0124C00220B
:1017800003A92046FFF777FB002202A92046FFF7B6
:101790009DFB9DF80E309DF80D209DF80C100B4818
:1017A000FFF768FF9DF809509DF80A409DF80B600F
:1017B0002046FFF7CBFF00903346224629460448D7
:1017C000FFF758FF08B070BD9C000020A822000859
:1017D000CC220008FEE7000008B50A480A4B036067
:1017E000402343607F238360FF23C36000230361A2
:1017F0004FF4801242618361FFF7DBF900B908BD45
:10180000FFF7E8FF9C0000200028004008B50948C9
:10181000094B03604FF4E133436000238360C360EE
:1018200003610C2242618361FFF77FFD00B908BDAF
:10183000FFF7D0FFBC0000200044004008B5FEF7D1
:101840004BFDFFF75BFFFFF7E1FFFFF7C5FFFFF77A
:101850002DFFFEE708B50320FEF76AFD0B4A536A29
:1018600043F4E0235362002211466FF00B00FEF7B1
:1018700071FD002211466FF00A00FEF76BFD002299
:1018800011466FF00900FEF765FD08BD00ED00E0B0
:1018900000B593B0042306930123089300230C930F
:1018A00006A8FEF7A5FE70B9022300934FF48073DB
:1018B00004936846FFF78EF840B9064B01221A6080
:1018C00013B05DF804FBFFF785FFEDE7FFF782FF3C
:1018D000F3E700BF3C0E474230B589B000240194C5
:1018E000184B1A6C42F400321A641A6C02F400327B
:1018F0000192019A02941A6B42F001021A631B6B67
:1019000003F001030293029B042303930223049335
:10191000012305930694072307930B4D03A928463B
:10192000FEF786FD0823039303A92846FEF780FDF2
:101930002620FEF743FD22460F212620FEF70AFD52
:1019400009B030BD00380240000002400F49D1F814
:10195000883043F47003C1F888300D4B1A6842F0A8
:1019600001021A60002098601A6822F0847222F442
:1019700080321A60074A5A601A6822F480221A607C
:10198000D8604FF000638B60704700BF00ED00E04F
:101990000038024010300024DFF834D0002103E08A
:1019A0000C4B5B58435004310B480C4B42189A4285
:1019B000F6D30B4A02E0002342F8043B094B9A425B
:1019C000F9D3FFF7C3FF00F011F8FFF737FF7047B7
:1019D0000000022074230008000000207000002096
:1019E0007000002000010020FEE7000070B50D4EE1
:1019F0000D4CA41BA4100025A54209D10B4E0C4C84
:101A000000F02CFCA41BA4100025A54205D170BD3C
:101A100056F8253098470135EEE756F825309847B7
:101A20000135F2E76C2300086C2300086C230008E2
:101A30007023000800B59BB0009104916FF0004145
:101A40000591029105490391694600F06DF8009BEC
:101A500000221A701BB05DF804FB00BF0802FFFFF4
:101A600013460A46014602480068FFF7E3BF00BF7D
:101A70000C0000202DE9F0478E689E4282460C46FD
:101A80009046994637D88A8912F4906F31D02568EC
:101A900009696F1A6569022305EB450595FBF3F5A6
:101AA00009F101033B449D4238BF1D46530530D523
:101AB000294600F02BFB064650B90C23CAF800302B
:101AC000A38943F04003A3814FF0FF30BDE8F087C6
:101AD0003A46216900F0A8FAA38923F4906343F001
:101AE0008003A381266165613E44ED1B2660A560ED
:101AF0004E464E4500D94E4632464146206800F0DB
:101B00009EFAA3689B1BA36023681E4426600020E6
:101B1000DCE72A4600F054FB06460028E2D12169A2
:101B2000504600F0A5FAC8E72DE9F04F1D468B8915
:101B30001F069DB080460C4616460FD50B696BB943
:101B4000402100F0E3FA2060206128B90C23C8F896
:101B500000304FF0FF30C8E0402363610023099359
:101B600020238DF8293030238DF82A3003954FF04B
:101B7000010B37463D4615F8013B0BB1252B3ED1F5
:101B8000B7EB060A0BD05346324621464046FFF7D4
:101B900071FF013000F0A480099B534409933B7806
:101BA000002B00F09D8000234FF0FF32CDE905238C
:101BB000049307938DF853301A932F46052217F894
:101BC000011B5048FEF714FB049BD0B9D90644BF53
:101BD00020228DF853201A0744BF2B228DF8532062
:101BE0002A782A2A15D0079A2F4600200A25394636
:101BF00011F8013B303B092B4DD9B8B10FE02F460E
:101C0000B8E7404A801A0BFA00F0184304903D46AA
:101C1000D3E7039A111D12680391002A01DB079292
:101C200004E0524243F00203079204933B782E2BC8
:101C30000CD17B782A2B33D1039B1A1D1B6803928E
:101C4000002BB8BF4FF0FF33023705932E4D397884
:101C500003222846FEF7CCFA38B14023401B03FA92
:101C600000F0049B034301370493397827488DF82B
:101C7000281006227E1CFEF7BBFA002838D0244B21
:101C800013BB039B073323F0070308330393099B1C
:101C90004B4409936DE705FB023201200F46A6E78E
:101CA00000230137059319460A25384610F8012B01
:101CB000303A092A03D9002BC8D00591C6E705FBA5
:101CC000012101230746F0E703AB00932246114BA5
:101CD00004A94046AFF30080B0F1FF3F8146D6D162
:101CE000A3895B063FF535AF09981DB0BDE8F08FBD
:101CF00003AB00932246074B04A9404600F082F84C
:101D0000EAE700BF382300083E230008422300080A
:101D100000000000751A00082DE9F04791461F46A3
:101D20008A680B69DDF820809342B8BF1346C9F872
:101D3000003091F8432006460C4612B10133C9F831
:101D400000302368990642BFD9F800300233C9F841
:101D50000030256815F0060507D104F1190AE3687B
:101D6000D9F800209B1AAB4228DC94F84330226853
:101D7000003318BF012392062DD404F143023946E3
:101D80003046C047013020D02368E568D9F80020EC
:101D900003F00603042B08BFAD1AA36822690CBF29
:101DA00025EAE57500259342C4BF9B1AED184FF054
:101DB00000091A344D451AD1002008E0012352468B
:101DC00039463046C047013003D14FF0FF30BDE8FF
:101DD000F0870135C3E7E1185A1C302081F8430031
:101DE000224494F8451082F843100233C5E70123DA
:101DF000224639463046C0470130E6D009F1010994
:101E0000D8E700002DE9F04301F1430C0C46097EB0
:101E100085B06E291746064698460C9A00F0B380A6
:101E200022D8632936D00AD8002900F0B980582971
:101E300000F0838004F1420584F8421032E0642906
:101E400001D06929F6D120681368050603F1040161
:101E50002AD51B681160002B03DA2D225B4284F81F
:101E600043206F480A2239E0732900F09D8008D88A
:101E70006F2920D07029DDD1236843F0200323602F
:101E800003E0752917D07829D4D1782384F8453018
:101E9000644855E01368191D1B68116004F1420580
:101EA00084F8423001238CE01B68116010F0400F71
:101EB00018BF1BB2CFE713682568181D10602806ED
:101EC00001D51B6802E06806FBD51B8854486F29C2
:101ED00014BF0A220822002184F843106568A56017
:101EE000002DC0F29580216821F004012160002BB3
:101EF0003DD1002D40F08E806546082A0BD1236825
:101F0000DB0708D5236962689A42DEBF302305F8F3
:101F1000013C05F1FF35ACEB05032361CDF80080F2
:101F20003B4603AA21463046FFF7F6FE01304DD16D
:101F30004FF0FF3005B0BDE8F083394884F8451014
:101F4000136821681D1D1B6815600A060BD5CA079A
:101F500044BF41F0200121601BB9226822F0200219
:101F600022601022B7E74D0648BF9BB2EFE76546F7
:101F7000B3FBF2F102FB1133C35C05F8013D0B46E4
:101F80000029F5D1B9E7136825686169181D10604B
:101F900028061B6801D5196002E06A06FBD5198086
:101FA000002323616546B9E71368191D11601D6898
:101FB000626800212846FEF71BF908B1401B6060EB
:101FC00063682361002384F84330A7E723692A4626
:101FD00039463046C0470130AAD023689B0713D446
:101FE000E068039B9842B8BF1846A3E701234A461E
:101FF00039463046C04701309AD00135E368039A2C
:102000009B1AAB42F2DCEBE7002504F11909F5E776
:10201000002BACD1037884F8423004F142056CE720
:10202000492300085A23000810B5431E0A44914270
:1020300000D110BD11F8014B03F8014FF7E78842BA
:1020400010B501EB020307D8421E99420AD011F8DD
:10205000014B02F8014FF8E78342F5D98118D21AF3
:10206000D34200D110BD13F8014D01F8014DF7E73F
:1020700038B50546002945D051F8043C0C1F002B0B
:10208000B8BFE41800F0D2F81F4A1368104633B9FD
:10209000636014602846BDE8384000F0C8B8A34229
:1020A0000CD921686218934204BF1A685B686360A8
:1020B00004BF521822600460ECE713465A680AB164
:1020C000A242FAD919685818A0420BD120680144DD
:1020D000581882421960DDD1106852685A60014474
:1020E0001960D7E702D90C232B60D3E720682118A9
:1020F0008A4204BF11685268626004BF09182160F7
:102100005C60C7E738BD00BF8C00002070B5CD1CF7
:1021100025F0030508350C2D38BF0C25002D06468B
:1021200001DBA94203D90C233360002070BD00F00D
:102130007DF8214A1468214691B9204C23681BB9C7
:10214000304600F063F820602946304600F05EF823
:10215000431C24D10C233360304600F068F8E4E7D8
:102160000B685B1B18D40B2B0FD90B60CD50CC1810
:10217000304600F05CF804F10B00231D20F007004E
:10218000C31AD3D05A42E250D0E78C424B6816BFF4
:10219000636013600C46EBE70C464968CCE7C41C4F
:1021A00024F00304A04205D0211A304600F02EF896
:1021B0000130CFD02560DBE78C00002090000020AC
:1021C000F8B5074614460E4621B91146BDE8F84059
:1021D000FFF79CBF22B9FFF74BFF25462846F8BD05
:1021E00000F026F8A0420FD221463846FFF78EFFB6
:1021F00005460028F2D031462246FFF715FF31464A
:102200003846FFF735FFE9E73546E7E738B5064CCE
:10221000002305460846236000F012F8431C02D153
:10222000236803B12B6038BDFC0000207047704765
:1022300051F8043C181F002BBCBF0B58C018704746
:10224000044A05491368002B08BF0B461844106068
:10225000184670479400002000010020F8B500BF28
:10226000F8BC08BC9E467047F8B500BFF8BC08BC77
:042270009E467047CF
:10227400F4220008FC2200080423000810230008AC
:102284001C23000824230008302300080000000059
:102294000000000001020304060708090000000012
:1022A4000102030443757272656E742074696D656E
:1022B4002069733A20253032643A253032643A2555
:1022C4003032640D0A00000043757272656E74202A
:1022D40064617461206973203A253032642D25309D
:1022E40032642D253032203C25733E20640D0A00D3
:1022F4004D6F6E6461790000547565736461790093
:102304005765646E65736461790000005468757282
:1023140073646179000000004672696461790000A9
:1023240053617475726461790000000053756E64C2
:1023340061790000232D302B2000686C4C00656609
:102344006745464700303132333435363738394102
:102354004243444546003031323334353637383918
:0823640061626364656600001C
:04236C00C50100089F
:04237000A1010008BF
:1023740001000000100000000024F4001000002000
:102384000000000000000000000000000000000049
:102394000000000000000000000000000000000039
:1023A4000000000000000000000000000000000029
:1023B4000000000000000000000000000000000019
:1023C4000000000000000000000000000000000009
:1023D40000000000000000000000000000000000F9
:04000005080019993D
:00000001FF
